:100000000C9438000C9455000C9455000C94550039
:100010000C9455000C9455000C9455000C9455000C
:100020000C9455000C9455000C9455000C945500FC
:100030000C9455000C9455000C9455000C945500EC
:100040000C9455000C9455000C9455000C945500DC
:100050000C9455000C9455000C9455000C945500CC
:100060000C9455000C9455000C9455000C945500BC
:1000700011241FBECFEFD4E0DEBFCDBF11E0A0E062
:10008000B1E0EEE5F3E002C005900D92A631B107B4
:10009000D9F721E0A6E1B1E001C01D92A532B20777
:1000A000E1F70E9480010C94AD010C9400008111D5
:1000B00002C093980895939A08958B9A80E00E94C5
:1000C00057000895B89AC09A089528E080E030E07B
:1000D000B09BFECFB09B0AC0932F9F5F42E04A9532
:1000E000F1F700C0B099F9CF9E3110F4880F02C02B
:1000F000880F8160215061F708950F931F93CF936C
:10010000DF938C01EB01B89AC09A8FE097E20197D8
:10011000F1F700C00000C098EFE3FCE93197F1F778
:1001200000C00000C09AB898F5E2FA95F1F7000017
:10013000B0991EC080E08F5F92E09A95F1F700C001
:10014000B09903C08639B9F702C0883298F0B099E7
:10015000FECF0E946500F80180830E9465000E9426
:10016000650088830E9465000E94650080E003C0EE
:1001700081E001C081E0DF91CF911F910F9108953F
:10018000BC98089586B38295817008958FEF8ABBDD
:1001900008958BBB0895B998089586B386958170AC
:1001A000089581B3806F81BB0895CF93DF931816B4
:1001B0001906D4F021C0D2B3DF01C191CD2BC2BB4F
:1001C000CFE3DFE12197F1F700C00000C2B3AC91AB
:1001D000A095AC23A2BBE217F30769F74F5F5F4F0F
:1001E0004817590739F431C040E050E064E071E04D
:1001F00028E031E0FB01DFCF44275527481B590B8E
:1002000014161506D4F021C0D2B3DF01C191CD2B55
:10021000C2BBCFE3DFE12197F1F700C00000C2B31A
:10022000AC91A095AC23A2BBE817F90769F72F5F43
:100230003F4F2417350739F408C020E030E060E074
:1002400071E084E091E0FB01DFCFDF91CF91089571
:100250000F931F93CF93DF930E94A2018F3E09F06B
:100260004AC0809316010E94A2018F3E09F043C04C
:10027000809317010E94A2018D30E9F58093180147
:10028000C9E1D1E003E211E00E94A2018993C01705
:10029000D107D1F7809119010E94570080911A016E
:1002A00090E00E94D50080911B010E94C90063E28A
:1002B00071E084E291E00E947D00809124018093AE
:1002C0000B018091230180930C010E94CD0080934B
:1002D0000D010E94C20080930E010E94A80180932C
:1002E0000F01C8E0D1E005E111E089910E949E0173
:1002F000C017D107D1F7DF91CF911F910F910895CA
:100300000E94C6000E9493010E945D000E94CB00E3
:100310000E94A6010E94C0000E94D1000E946200BB
:100320000E942801FDCF1BB88AB188618AB980B5C7
:10033000866080BD10BC88E089B908955D9BFECFC2
:100340008CB908955F9BFECF8CB108958A9808956B
:0E03500080B382FB882780F90895F894FFCFD0
:10035E003090C0603060C090FEFE0D0000000000C6
:06036E0000000000FF008A
:00000001FF
